:020000040800F2
:1000000000800120F96C0108516D0108516D010853
:10001000516D0108516D0108516D0108000000008B
:10002000000000000000000000000000516D010809
:10003000516D010800000000516D0108516D01086B
:10004000516D0108516D0108516D0108516D010894
:10005000516D0108516D0108516D0108516D010884
:10006000516D0108516D0108516D0108516D010874
:10007000516D0108516D0108516D0108516D010864
:10008000516D0108516D0108516D0108000000001B
:10009000000000000000000000000000516D010899
:1000A000516D0108516D0108516D0108516D010834
:1000B000516D0108516D0108516D0108516D010824
:1000C000516D0108516D0108516D0108516D010814
:1000D000516D0108516D0108516D010800000000CB
:1000E000516D0108516D0108516D010800000000BB
:1000F000000000000000000000000000516D010839
:1001000000000000516D0108516D0108516D01089A
:1001100000000000000000000000000000000000DF
:10012000516D0108516D0108516D0108516D0108B3
:10013000516D0108000000000000000000000000F8
:10014000000000000000000000000000516D0108E8
:10015000516D0108516D0108516D0108516D010883
:10016000516D0108516D0108000000000000000001
:10017000000000000000000000000000000000007F
:1001800000000000516D01080000000000000000A8
:10019000516D010810B5054C237833B9044B13B1E8
:1001A0000448AFF300800123237010BD880C0020A9
:1001B00000000000F4D4010808B5064B1BB1064846
:1001C0000649AFF300800648036813B1054B03B13D
:1001D000984708BD00000000F4D401088C0C0020F2
:1001E000840C002000000000154B002B08BF134BAF
:1001F0009D46A3F5803A00218B460F461348144ACA
:10020000121A16F0DFFD0F4B002B00D098470E4B53
:10021000002B00D098470020002104000D000D485D
:10022000002802D00C4818F0A5F916F0A3FD200014
:10023000290000F0BBF816F08DFD00BF000008009B
:10024000008001200000000000000000880C002059
:10025000840E0020758501080995010882B001907F
:10026000019B5A1E0192002BFAD102B0704700BFC9
:1002700070B586B0174C236B43F00103236301264E
:1002800001960323029300250395134801A904F066
:1002900099FE636C43F480736364104C104B2360CD
:1002A0006560A5602561A5616562A562E56225635B
:1002B000E5602662E5616561204600F07BFB094947
:1002C0000D604E608D60CD60204600F04BFE06B0A4
:1002D00070BD00BF0038024000000240900D0020B9
:1002E00000200140D40D002000B587B0094B1A6BE7
:1002F00042F001021A634FF48063019301230293D9
:10030000002203920493044801A904F05BFE07B0A5
:100310005DF804FB003802400000024008B500F020
:1003200055F916F0FBFBFFF7A3FFFFF7DDFF08BD54
:1003300038B5084800F0EEFB064D0A242846214651
:1003400000F036FC0028F9D1024800F051FD80B2DF
:1003500038BD00BF900D002038B5134C20464FF437
:100360008061002204F058FF4FF6FF70FFF776FF20
:10037000FFF7DEFF054620464FF48061012204F0BE
:100380004BFF4FF6FF70FFF769FFFFF7D1FF2D1A04
:1003900020464FF48061002204F03EFF85EAE570BC
:1003A000A0EBE57080B238BD0000024030B593B0DC
:1003B000FFF7B4FF2A4C05AD94E80F0007C52B806A
:1003C0000DF122000021242216F0FCFC05A80121D9
:1003D00016F0FCFA04F1340393E803000590ADF83D
:1003E0001810090C8DF81A1005A8012116F0EEFA64
:1003F00004F13C0205AB07CA03C323F8022B120C1D
:100400001A7005A8012116F0E1FA04F1480205ABC3
:1004100007CA03C323F8022B120C1A7005A8012186
:1004200016F0D4FA543405AD94E80F0007C52B80BC
:1004300005A8012116F0CAFA16F044FC094D0A4C31
:10044000FFF78AFF024601A8294616F027FD01A8FA
:10045000002116F0BBFA2046FFF700FFF0E700BFCF
:100460002CCC010890CC010800FF7F00024B1A68D9
:1004700001321A60704700BFA40C0020014B1B68BA
:10048000586A7047240E002038B5104B1A6C42F0A1
:1004900008021A640E4B1A680E4BA3FB0213DB0909
:1004A000013B9BB20C4C0D4A22604FF6FF72E2609A
:1004B0006360002525616561A560204610F0E2FDBE
:1004C00020460FF059FF284638BD00BF00380240D3
:1004D0009C010020D34D6210240E0020000C00402F
:1004E000704700BF704700BF08B5044B1B686FF032
:1004F00001021A61FFF7BAFF08BD00BF240E0020F9
:100500002DE9F04186B01E4B1A6C42F400321A6499
:100510001A6B42F001021A631A6B42F001021A636D
:10052000184CA3F5FA3323604FF4E13363600023E2
:10053000A360E3602361A3610C236361042301933F
:10054000022502954FF00108CDF80C80049507278D
:1005500005970D4E30460DEB030104F033FD0823E3
:1005600001930295CDF80C8004950597304601A9BA
:1005700004F028FD204612F0EBFE06B0BDE8F08145
:1005800000380240E40D00200000024000B583B0B6
:1005900002A901F8010D04480122134612F0C8FF18
:1005A00003B05DF804FB00BFE40D0020064B1B68A0
:1005B0001A6812F0200F05D05868C0B26FF0200200
:1005C0001A60704700207047E40D002008B5032032
:1005D00001F07CF800F04AF9094B1A6B42F0010275
:1005E0001A631A6B42F002021A631A6B42F0040299
:1005F0001A631A6B42F008021A63FFF781FF08BD05
:100600000038024000B587B0094B1A6B42F0010276
:100610001A6320230193012302930393022304937B
:10062000044801A904F0CEFC07B05DF804FB00BF4C
:100630000038024000000240024B9A6942F020025A
:100640009A61704700000240024B9A6942F400121E
:100650009A61704700000240024B5A6982F0200202
:100660005A6170470000024030B40C4A93681C463F
:100670009268B2F1006F0CD103F5C475084A53F8C3
:10068000044B42F8044FAB42F9D14FF00054034BF6
:100690009C60103044F8201030BC704700ED00E042
:1006A000FCFFFF1F024B9B68103053F8200070477F
:1006B00000ED00E01E4B9B6803F00C03042B06D0FA
:1006C000082B08D023BB1B4A1B4B1A6023E01B4A94
:1006D000194B1A601FE0164B59685B6803F03F0323
:1006E00011F4800F124A5168C1F3881114BF134AE4
:1006F000104AB2FBF3F202FB01F20D4B5B68C3F34D
:10070000014301335B00B2FBF3F20B4B1A6002E0D2
:10071000084A094B1A60064B9A68C2F30312064B4B
:100720001A441179C9B21A68CA401A60704700BFEA
:10073000003802400024F4009C01002000127A00DE
:1007400030B593B0174B1A6C42F080521A64A3F57F
:10075000E4331A6822F4404242F400421A60022450
:100760000194012304931023059307940025089511
:1007700009934FF4A8730A9304230B9307230C9354
:1007800001A80AF039FA0F230D930E940F954FF438
:100790008053109311950DA821460AF011FC13B057
:1007A00030BD00BF0038024008B5144AD2F8883086
:1007B00043F47003C2F88830114B196841F001010D
:1007C000196000209860196821F0847121F480314B
:1007D00019600C495960196821F480211960D860AA
:1007E0004FF000639360084A084B1A6000F03EF82F
:1007F000FFF7A6FFFFF75EFF08BD00BF00ED00E0BA
:1008000000380240103000240024F4009C01002035
:10081000704700BF704700BF10B5094B4FF0FF3263
:100820001A6200241C625A625C621A611C615A617D
:100830005C619A619C6109F017FB204610BD00BF06
:100840000038024010B504460AF070FD064BA3FBC9
:100850000020800900F0A8FF4FF0FF302146002261
:1008600000F046FF002010BDD34D621008B50B4BC1
:100870001A6842F400721A601A6842F480621A60C0
:100880001A6842F480721A60032000F01FFF0F20E4
:10089000FFF7FAFD09F0E6FA002008BD003C02402F
:1008A000024B1A6801321A60704700BFA80C002082
:1008B000014B1868704700BFA80C002010B582B02B
:1008C0000190FFF7DBFD0446FFF7D8FD019B001BFD
:1008D0009842F9D302B010BD024B1A6822F002020E
:1008E0001A60704710E000E0024B1A6842F0020202
:1008F0001A60704710E000E04FF08170704700BF51
:10090000014B1868000C7047002004E0024B186887
:10091000C0F30B00704700BF002004E0024B5A6890
:1009200042F001025A607047002004E0024B5A680E
:1009300022F001025A607047002004E0024B5A681E
:1009400042F002025A607047002004E0024B5A68ED
:1009500022F002025A607047002004E0024B5A68FD
:1009600042F004025A607047002004E0024B5A68CB
:1009700022F004025A607047002004E0012393FA39
:10098000A3F1B1FA81F1C9B2014A42F821307047AE
:1009900000042742012292FAA2F2B2FA82F2D2B203
:1009A0000021024B43F82210704700BF0004274289
:1009B000704700BF10B50446002800F0948090F8FE
:1009C0003D3013F0FF0F01D1FFF7F2FF022384F84F
:1009D0003D30464B5A6822F440325A60596862688A
:1009E0000A435A6023685A6822F480725A60236866
:1009F0005968226941EA02225A6023685A6822F043
:100A000040725A6023685968A2680A435A60236892
:100A10009A6822F400629A6023689968E2680A433F
:100A20009A6023689A6822F070629A6023689968D5
:100A3000226B0A439A6023689A6822F040529A60B7
:100A400023689968E26A0A439A6023689A6822F0E8
:100A500002029A6023689968A26941EA42029A6098
:100A6000636A8BB123685A6842F400625A60236853
:100A70005A6822F460425A6023685968A26A013AAF
:100A800041EA42325A6004E023685A6822F4006264
:100A90005A602368DA6A22F47002DA622368D96A3B
:100AA000226A013A41EA0252DA6223689A6822F421
:100AB00000729A6023689968E26941EA42229A606A
:100AC00023689A6822F480629A6023689968626950
:100AD00041EA82229A6000202064012384F83D309C
:100AE00084F83C0010BD012010BD00BF0023014070
:100AF000704700BF10B5044648B1022380F83D306E
:100B0000FFF7F6FF0020206484F83D0010BD0120AF
:100B100010BD00BF90F83C30012B38D0012380F885
:100B20003C3090F83D30DBB2222B0CBF3223122335
:100B300080F83D3003689A6812F0010F0AD19A6874
:100B400042F001029A6040F21D2300BF013B9BB2BC
:100B5000002BFAD10F4B5B6813F01F0F07D1C36A4C
:100B600083B903689A6842F080429A600AE0036899
:100B7000094A934206D1C36A23B91346926842F0E8
:100B800080429A60002380F83C301846704702206B
:100B9000704700BF002301400020014003689A68AD
:100BA00022F001029A60012380F83D300020704756
:100BB00070B505460C46FFF761FC06460FE0B4F140
:100BC000FF3F0DD024B1FFF759FC801B844206D2B1
:100BD000032085F83D00002385F83C3070BD2A686D
:100BE000136813F0020FEAD095F83D30DBB2252BE5
:100BF0000CBF3523152385F83D30002070BD00BFA4
:100C0000F8B506460C461546FFF738FC07460FE0D8
:100C1000B5F1FF3F0DD025B1FFF730FCC01B854279
:100C200006D2032086F83D00002386F83C30F8BD4C
:100C300031680B682340A342EAD1012C07D1062377
:100C400086F83D306FF001030B600020F8BD0423EF
:100C500086F83D306FF020030B600020F8BD00BF28
:100C600090F83C30012B44D0012380F83C3090F8C0
:100C70003D30DBB2222B0CBF3223122380F83D30F3
:100C80000023036403689A6812F0010F0AD19A687E
:100C900042F001029A6040F21D2300BF013B9BB26B
:100CA000002BFAD103685A6842F080625A600368E8
:100CB0005A6842F020025A600F4B5B6813F01F0F16
:100CC00007D1C36A83B903689A6842F080429A6088
:100CD0000AE00368094A934206D1C36A23B913465E
:100CE000926842F080429A60002380F83C301846B7
:100CF00070470220704700BF0023014000200140E0
:100D000003685A6822F020025A6003685A6822F089
:100D100080025A6003689A6822F001029A600123F7
:100D200080F83D300020704738B504460D46134624
:100D300090F83C00012839D0012284F83C20226838
:100D4000516841F0806151602268916841F480717E
:100D50009160A26B1649D163A26B16491164A26B14
:100D6000154991642168A06B4C312A4601F022FAA2
:100D7000122384F83D3023689A6812F0010F0AD1DB
:100D80009A6842F001029A6040F21D2300BF013BC5
:100D90009BB2002BFAD1E36A23B923689A6842F028
:100DA00080429A60002084F83C0038BD022038BDA3
:100DB000FD0D00081D0E00084D0F000810B504467B
:100DC00003689A6822F001029A6003685A6822F068
:100DD00080625A6003689A6822F480729A60806B1D
:100DE00001F02EFA012384F83D30002010BD00BF31
:100DF0000368D86C704700BF704700BF08B5806BB0
:100E000090F83D30DBB2252B0CBF3523152380F83D
:100E10003D30FFF7F1FF08BD704700BF08B5806B9C
:100E2000FFF7FAFF08BD00BF704700BF704700BF63
:100E300010B5044603681A68596812F0020F34D0DE
:100E400011F0200F31D090F83D20D2B2252A0CBFEE
:100E50003522152280F83D208269FAB9C26AEAB9C2
:100E600042694AB95A6822F020025A6003685A68F7
:100E700022F080625A6011E0426B0AB9026A426352
:100E8000626B013A6263626B42B95A6822F02002D7
:100E90005A6023685A6822F080625A602046FFF741
:100EA000ABFF23686FF002021A6023681A68596862
:100EB00012F0040F20D011F0800F1DD094F83D20C7
:100EC000D2B2152A0CBF3522252284F83D2058685D
:100ED0009A6802F44011A26912B110F4806F04D133
:100EE00019B95A6822F080025A60204600F0D2FAFE
:100EF00023686FF004021A6023681A68596812F0B8
:100F0000010F0BD011F0400F08D0062284F83D20CD
:100F10006FF001021A602046FFF786FF23681A6807
:100F2000596812F0200F0FD011F0806F0CD00422FE
:100F300084F83D20226C42F0010222646FF020020E
:100F40001A602046FFF772FF10BD00BF08B5806B26
:100F5000042380F83D30036C43F002030364FFF781
:100F600065FF08BD30B490F83C30012B00F098804C
:100F7000012380F83C300B68092B16D90268D4682D
:100F80009BB203EB43031E3B072505FA03F324EA58
:100F90000303D3600368DD680A8802EB42021E3A4D
:100FA0008C6894402C43DC6013E0026814699BB2A7
:100FB00003EB4303072505FA03F324EA0303136154
:100FC00003681D690A8802EB42028C6894402C4336
:100FD0001C614B68062B16D80268546B03EB830325
:100FE000053B1F2505FA03F324EA03035363036853
:100FF0005C6B0D884A6802EB8202053A05FA02F240
:1010000022435A632EE00C2B16D80268146B03EBB4
:101010008303233B1F2505FA03F324EA0303136329
:1010200003681C6B0D884A6802EB8202233A05FABA
:1010300002F222431A6315E00268D46A03EB8303C9
:10104000413B1F2505FA03F324EA0303D362036837
:10105000DC6A0D884A6802EB8202413A05FA02F224
:101060002243DA620368104A934214D10B68122BB0
:1010700008D10E4B5A6842F480025A6003680A4A4B
:10108000934208D10B68103B012B04D8074B5A68D8
:1010900042F400025A60002380F83C30184600E019
:1010A000022030BC704700BF0020014000230140F7
:1010B00010B490F83C30012B2DD0012380F83C3047
:1010C0000B69012B03685A680CBF42F0400222F002
:1010D00040025A600268536823F4400323F400730B
:1010E000536003685C680A6822435A6003684A6870
:1010F0005A6203688A689A6203685A6822F01F027B
:101100005A6003685A6889890A435A60002380F844
:101110003C30184600E002205DF8044B704700BFE9
:1011200090F83D00704700BF006C704708B5806BB9
:10113000042380F83D30036C43F002030364FFF79F
:1011400075FE08BD08B5806BFFF766FE08BD00BFE1
:1011500008B5806B90F83D30DBB2252B0CBF3523F2
:10116000152380F83D30FFF747FE08BD10B490F816
:101170003C30012B42D0012380F83C3090F83D30C8
:10118000DBB2122B0CBF3223222380F83D300368E0
:101190009A6812F0010F08D19A6842F001029A6031
:1011A00040F21D2300BF013BFCD1164B5B6813F0DE
:1011B0001F0F0DD103689A68596812F4401F18D1A7
:1011C00011F4806F15D19A6842F480029A6010E0A1
:1011D00003689C6859680C4A93420AD114F4401F72
:1011E00007D111F4806F04D11346926842F4800253
:1011F0009A60002380F83C30184600E002205DF839
:10120000044B7047002301400020014010B490F8C7
:101210003C30012B4ED0012380F83C3090F83D301B
:10122000DBB2122B0CBF3223222380F83D30002387
:10123000036403689A6812F0010F08D19A6842F0BB
:1012400001029A6040F21D2300BF013BFCD10368FC
:101250005A6842F080025A6003685A6842F080621D
:101260005A60164B5B6813F01F0F0DD103689A6824
:10127000596812F4401F18D111F4806F15D19A6883
:1012800042F480029A6010E003689C6859680C4A36
:1012900093420AD114F4401F07D111F4806F04D196
:1012A0001346926842F480029A60002380F83C3032
:1012B000184600E002205DF8044B7047002301400F
:1012C0000020014003689A6822F001029A6001231D
:1012D00080F83D300020704770B505460C46FFF79A
:1012E000CDF806460FE0B4F1FF3F0DD024B1FFF773
:1012F000C5F8801B844206D2032085F83D000023F8
:1013000085F83C3070BD2A68136813F0040FEAD0EA
:1013100095F83D30DBB2152B0CBF3523252385F81E
:101320003D30002070BD00BF03685A6822F02002E3
:101330005A6003685A6822F080025A6003689A680B
:1013400022F001029A60012380F83D3000207047AE
:1013500082B00023019303686FF004021A60013920
:10136000032912D8DFE801F00E0A060203689B6C1D
:1013700001930AE003685B6C019306E003681B6C51
:10138000019302E00368DB6B0193019802B07047A0
:1013900038B504460D46134690F83C00012840D06D
:1013A000012284F83C202068426842F0806242605A
:1013B000E2692AB11C4A516841F40051516004E0CD
:1013C000194A516821F400515160A26B1749D16349
:1013D000A26B17491164A26B16499164A06B164960
:1013E0002A4600F0E7FE122384F83D3023689A680D
:1013F00012F0010F0AD19A6842F001029A6040F29D
:101400001D2300BF013B9BB2002BFAD1E36A23B935
:1014100023689A6842F080429A60002084F83C0079
:1014200038BD022038BD00BF002301405111000823
:10143000451100082D1100080823014038B5044665
:1014400090F83C30012B1AD0012580F83C500368FD
:101450009A6822F001029A6003685A6822F080625A
:101460005A60084B5A6822F400525A60806B00F0B0
:10147000E7FE84F83D50002084F83C0038BD02208F
:1014800038BD00BF00230140014B9868704700BF82
:1014900000230140704700BF70B490F83C30012B2E
:1014A00000F0E080012380F83C300B68092B16D94E
:1014B0000268D4689BB203EB43031E3B072505FA81
:1014C00003F324EA0303D3600368DD680A8802EBB0
:1014D00042021E3A8C6894402C43DC6013E00268A0
:1014E00014699BB203EB4303072505FA03F324EACF
:1014F0000303136103681D690A8802EB42028C68CA
:1015000094402C431C6103689A6B22F440129A6346
:1015100003689C6B0A69013A44EA02529A630368C1
:101520009D6B4C68E21C0C69141BE2B202EB820258
:101530001F2404FA02F225EA02029A6303689D6BF3
:101540000E884C68E21C0C69141BE2B202EB8202AA
:1015500006FA02F22A439A6303689A6822F4702218
:101560009A6003689C680A6A22439A6003689A68D2
:1015700022F440129A6003689C68CA6922439A6008
:101580004B692BB103685A6842F480625A6004E0E8
:1015900003685A6822F480625A608B692BB1036831
:1015A0005A6842F480525A6004E003685A6822F490
:1015B00080525A604B68022B10D0032B1BD0012B9A
:1015C00026D10268536923F47F6323F00F0353612C
:1015D00003685C69CA6822435A6125E0026893691E
:1015E00023F47F6323F00F03936103689C69CA6847
:1015F00022439A6118E00268D36923F47F6323F0E1
:101600000F03D3610368DC69CA682243DA610BE027
:101610000268136A23F47F6323F00F0313620368E5
:101620001C6ACA6822431A620368104A934214D1A2
:101630000B68122B08D10E4B5A6842F480025A6094
:1016400003680A4A934208D10B68103B012B04D867
:10165000074B5A6842F400025A60002380F83C307D
:10166000184600E0022070BC704700BF0020014017
:101670000023014010B490F83C30012B20D001230E
:1016800080F83C30104B5A6822F01F025A605C68A8
:101690000A6822435A605A6822F440425A605C68E1
:1016A0004A6822435A605A6822F470625A605C6841
:1016B0008A6822435A60002380F83C30184600E0D4
:1016C00002205DF8044B704700230140074AD368AD
:1016D00023F4E0631B041B0C43F0BF6343F40033AB
:1016E00000F0070043EA0023D360704700ED00E0FC
:1016F00070B4164BDC68C4F30224C4F10703042B56
:1017000028BF0423251D062D8CBF033C0024012582
:1017100005FA04F6013E324005FA03F3013B194095
:1017200001FA04F41443002806DA00F00F00240143
:10173000E4B2074B1C5407E02401E4B200F160401E
:1017400000F5614080F8004370BC704700ED00E098
:1017500014ED00E0420900F01F00012303FA00F03D
:10176000014B43F82200704700E100E0420900F01D
:101770001F00012303FA00F02032024B43F822003D
:10178000704700BF00E100E0BFF34F8F044AD1680B
:1017900001F4E061034B0B43D360BFF34F8FFEE7CF
:1017A00000ED00E00400FA050138B0F1807F0AD2B4
:1017B000064B5860F021064A82F8231000209860FA
:1017C00007221A6070470120704700BF10E000E058
:1017D00000ED00E0024BD868C0F30220704700BF64
:1017E00000ED00E070B4002805DA00F00F00134CA3
:1017F000245C240906E000F1604000F5614090F8A7
:101800000043240901F00701C1F10700042828BFA3
:1018100004200D1D062D8CBF0339002124FA01F68A
:10182000012505FA00F001383040106005FA01F199
:1018300001390C401C6070BC704700BF14ED00E023
:10184000420900F01F00012303FA00F04032024B6E
:1018500043F82200704700BF00E100E04209403237
:10186000064B53F8223000F01F00012202FA00F06C
:1018700018420CBF00200120704700BF00E100E0CB
:10188000420900F01F00012303FA00F06032024B0E
:1018900043F82200704700BF00E100E042098032B7
:1018A000064B53F8223000F01F00012202FA00F02C
:1018B00018420CBF00200120704700BF00E100E08B
:1018C0000428044B1A680CBF42F0040222F0040200
:1018D0001A60704710E000E0704700BF08B5FFF7DE
:1018E000FBFF08BD704700BF10B5044658B14379EF
:1018F00013F0FF0F01D1FFF7F5FF022363710123FE
:101900006371002010BD012010BD00BF704700BFF3
:1019100010B5044638B102234371FFF7F7FF0020EA
:101920006071207110BD012010BD00BF30B403797B
:10193000012B14D0012303710223437142B10B46E2
:1019400001EB8202046853F8045B25609342F9D1ED
:1019500001234371002303710368186800E002202B
:1019600030BC704730B40379012B19D001230371C7
:101970000223437103689C6844F001049C6042B1F7
:101980000B4601EB8202046853F8045B2560934226
:10199000F9D101234371002303710368186800E043
:1019A000022030BC704700BF4079704710B4034636
:1019B00000282FD0022280F8352001680868174AD5
:1019C00002409C6858680443D8680443186904437B
:1019D0005869044398690443D8690443186A20434A
:1019E0000243586A042803D11C6BD86A204302437F
:1019F0000A601A68506920F00700596A08430429F0
:101A000004BF996A084350610020D864012283F81A
:101A1000352000E001205DF8044B70473F8010F056
:101A20000346002800F0878390F83520D2B2022ABE
:101A300000F083830268116821F0010111600168E0
:101A400000220A6001684A6001688A600168CA6011
:101A500001680A610268212151610268A7498A422E
:101A600028D922F48062A1F589618A4213D06031BD
:101A70008A4212D048398A4211D060318A4211D04C
:101A800048398A4211D060318A4214BF4FF08072C7
:101A90004FF480220BE09A4A09E0994A07E04FF49C
:101AA000807204E04FF4807201E04FF48022954987
:101AB000CA607CE094498A4227D922F48062A8391E
:101AC0008A4213D060318A4212D048398A4211D0FA
:101AD00060318A4211D048398A4211D060318A423D
:101AE00014BF4FF080724FF480220BE0844A09E06B
:101AF000834A07E04FF4807204E04FF4807201E003
:101B00004FF480227F498A6051E080498A4227D978
:101B100022F4806248398A4213D060318A4212D05E
:101B200048398A4211D060318A4211D048398A42FC
:101B300011D060318A4214BF4FF080724FF480227E
:101B40000BE06F4A09E06E4A07E04FF4807204E050
:101B50004FF4807201E04FF480226D49CA6026E0A4
:101B600022F480626B498A4213D060318A4212D0DB
:101B700048398A4211D060318A4211D048398A42AC
:101B800011D060318A4214BF4FF080724FF480222E
:101B90000BE05B4A09E05A4A07E04FF4807204E028
:101BA0004FF4807201E04FF4802259498A601A682C
:101BB00052498A4228D922F48062A1F589618A4279
:101BC00013D060318A4212D048398A4211D0603134
:101BD0008A4211D048398A4211D060318A4214BFFA
:101BE0004FF000624FF400120BE0202209E02022A7
:101BF00007E04FF4006204E04FF4006201E04FF4AC
:101C000000124049CA608BE03F498A4227D922F43A
:101C10008062A8398A4213D060318A4212D0483992
:101C20008A4211D060318A4211D048398A4211D09B
:101C300060318A4214BF4FF000624FF400120BE093
:101C4000202209E0202207E04FF4006204E04FF474
:101C5000006201E04FF400122A498A6060E02B49DB
:101C60008A4227D922F4806248398A4213D06031EF
:101C70008A4212D048398A4211D060318A4211D04A
:101C800048398A4211D060318A4214BF4FF0006255
:101C90004FF400120BE0202209E0202207E04FF46D
:101CA000006204E04FF4006201E04FF400121849B2
:101CB000CA6035E022F4806216498A4213D060314E
:101CC0008A4212D048398A4211D060318A4211D0FA
:101CD00048398A4220D060318A4214BF4FF00062F6
:101CE0004FF400121AE0202218E0202216E04FF4F0
:101CF000006213E04FF4006210E000BF586402403D
:101D00000400800000640240B86002405860024055
:101D100000600240106002404FF40012A4498A6043
:101D20001A68A4498A4228D922F48062A1F58961FF
:101D30008A4213D060318A4212D048398A4211D087
:101D400060318A4211D048398A4211D060318A42CA
:101D500014BF4FF000724FF400220BE0082209E09C
:101D6000082207E04FF4007204E04FF4007201E033
:101D70004FF400229049CA607CE090498A4227D9FA
:101D800022F48062A8398A4213D060318A4212D08C
:101D900048398A4211D060318A4211D048398A428A
:101DA00011D060318A4214BF4FF000724FF400220C
:101DB0000BE0082209E0082207E04FF4007204E07B
:101DC0004FF4007201E04FF400227B498A6051E039
:101DD0007B498A4227D922F4806248398A4213D04B
:101DE00060318A4212D048398A4211D060318A4229
:101DF00011D048398A4211D060318A4214BF4FF065
:101E000000724FF400220BE0082209E0082207E0EC
:101E10004FF4007204E04FF4007201E04FF400222E
:101E20006349CA6026E022F4806266498A4213D080
:101E300060318A4212D048398A4211D060318A42D8
:101E400011D048398A4211D060318A4214BF4FF014
:101E500000724FF400220BE0082209E0082207E09C
:101E60004FF4007204E04FF4007201E04FF40022DE
:101E70004F498A601A684F498A4226D922F4806203
:101E8000A1F589618A4213D060318A4212D0483963
:101E90008A4211D060318A4210D048398A420FD02C
:101EA00060318A4214BF4FF480024FF4803209E05F
:101EB000454A07E0444A05E0402203E0402201E0B1
:101EC0004FF480323C49CA6084E03C498A4225D9BB
:101ED00022F48062A8398A4213D060318A4212D03B
:101EE00048398A4211D060318A4210D048398A423A
:101EF0000FD060318A4214BF4FF480024FF4803219
:101F000009E0314A07E0304A05E0402203E0402280
:101F100001E04FF4803228498A605BE028498A4218
:101F200025D922F4806248398A4213D060318A422E
:101F300012D048398A4211D060318A4210D04839D3
:101F40008A420FD060318A4214BF4FF480024FF4AE
:101F5000803209E01C4A07E01B4A05E0402203E00A
:101F6000402201E04FF480321149CA6032E022F48D
:101F7000806214498A4213D060318A4212D04839B3
:101F80008A4211D060318A4210D048398A421DD02D
:101F900060318A4214BF4FF480024FF4803217E060
:101FA000094A15E0084A13E0402211E040220FE000
:101FB000006002405864024000640240B860024081
:101FC0005860024010600240010080004FF48032EF
:101FD0005B498A601A685B498A4228D922F4806288
:101FE000A1F589618A4213D060318A4212D0483902
:101FF0008A4211D060318A4211D048398A4211D0C8
:1020000060318A4214BF4FF080624FF480120BE0BF
:10201000102209E0102207E04FF4806204E04FF440
:10202000806201E04FF480124749CA607CE0474972
:102030008A4227D922F48062A8398A4213D06031BB
:102040008A4212D048398A4211D060318A4211D076
:1020500048398A4211D060318A4214BF4FF0806201
:102060004FF480120BE0102209E0102207E04FF439
:10207000806204E04FF4806201E04FF48012324944
:102080008A6051E032498A4227D922F48062483975
:102090008A4213D060318A4212D048398A4211D024
:1020A00060318A4211D048398A4211D060318A4267
:1020B00014BF4FF080624FF480120BE0102209E051
:1020C000102207E04FF4806204E04FF4806201E0E8
:1020D0004FF480121A49CA6026E022F480621D493A
:1020E0008A4213D060318A4212D048398A4211D0D4
:1020F00060318A4211D048398A4211D060318A4217
:1021000014BF4FF080624FF480120BE0102209E000
:10211000102207E04FF4806204E04FF4806201E097
:102120004FF4801206498A600020D86483F8350095
:1021300083F834007047012070470120704700BFCA
:10214000006002405864024000640240B8600240EF
:10215000586002401060024030B490F83440012CC6
:1021600024D0012480F83440022480F835400468EB
:10217000256825F0010525600468256825F480257B
:102180002560046863608368402B04D103689A600B
:102190000368D96003E0036899600368DA60036844
:1021A0001A6842F001021A60002000E0022030BCF0
:1021B000704700BF30B490F83440012C3DD001246A
:1021C00080F83440022480F835400468256825F002
:1021D000010525600468256825F4802525600468CC
:1021E00063608368402B04D103689A600368D960F8
:1021F00003E0036899600368DA6003681A6842F0D4
:1022000010021A6003681A6842F008021A60036834
:102210001A6842F004021A6003685A6942F08002A8
:102220005A6103681A6842F002021A6003681A6869
:1022300042F001021A60002000E0022030BC70472A
:1022400038B5044603681A6822F001021A60FEF7E6
:1022500015F9054610E0FEF711F9401BB0F57A7F3D
:102260000AD9E36C43F02003E364002384F834309C
:10227000032084F8350038BD23681B6813F0010F74
:10228000E9D1002084F83400012384F8353038BDCA
:102290002DE9F04F85B0834690460291C9B9036895
:1022A00023F48063C14A93422DD0603293422DD0F3
:1022B000483A93422DD0603293422DD0483A93420F
:1022C0002DD06032934214BF4FF000694FF40019D3
:1022D00036E0036823F48063B44A934222D060322C
:1022E000934222D0483A934222D06032934222D085
:1022F000483A934222D06032934214BF4FF0806933
:102300004FF480191CE04FF0200919E04FF020092C
:1023100016E04FF4006913E04FF4006910E04FF449
:1023200000190DE04FF010090AE04FF0100907E026
:102330004FF4806904E04FF4806901E04FF48019A4
:10234000FEF79CF803909A4CDFF870A2974DCDF8F9
:1023500004B0CBE2974B5868AA4200F091876245DF
:1023600000F098875A4500F08087A3F55E739A4283
:1023700000F05A87483B9A4200F06C8760339A42DB
:1023800040F0928700F05BBF8A4B1868AA4200F0C9
:10239000D787624500F0A9875A4500F09087A3F5DA
:1023A0005E739A4200F09687483B9A4200F0BD87E0
:1023B00060339A4240F0A38700F0ACBF7E4B586870
:1023C000AA4200F0FD87624500F0C4875A4501F03B
:1023D000018088339A4200F0E887483B9A4200F037
:1023E000CE8760339A4240F0D58700F0BDBF724B74
:1023F0001868AA4201F00480624501F016805A452F
:1024000001F0088088339A4201F01980483B9A42D3
:1024100001F02B8060339A4240F0E78701F01AB850
:102420003E4004E03E4002E03E4000E03E4040B915
:10243000002B40F0C780002E00F03C82DDF804B095
:102440006BE1DDF804B0DBF84C2042F00102CBF880
:102450004C20574A914228D921F48061A2F5896223
:10246000914213D06032914212D0483A914211D039
:102470006032914211D0483A914211D0603291427B
:1024800014BF4FF000714FF400210BE0082109E068
:10249000082107E04FF4007104E04FF4007101E0FF
:1024A0004FF40021434AD1607CE0444A914227D94D
:1024B00021F48061A83A914213D06032914212D047
:1024C000483A914211D06032914211D0483A91423B
:1024D00011D06032914214BF4FF000714FF40021CF
:1024E0000BE0082109E0082107E04FF4007104E047
:1024F0004FF4007101E04FF400212E4A916051E049
:102500002F4A914227D921F48061483A914213D051
:102510006032914212D0483A914211D060329142D9
:1025200011D0483A914211D06032914214BF4FF01D
:1025300000714FF400210BE0082109E0082107E0B9
:102540004FF4007104E04FF4007101E04FF40021FA
:10255000194AD16026E021F48061144A914213D0D7
:102560006032914212D0483A914211D06032914289
:1025700011D0483A914211D06032914214BF4FF0CD
:1025800000714FF400210BE0082109E0082107E069
:102590004FF4007104E04FF4007101E04FF40021AA
:1025A000054A9160002B00F0B8800DE010600240F9
:1025B000586402400064024000600240B86002407B
:1025C00058600240DDF804B0DBF84C3043F0020301
:1025D000CBF84C30DBF80030AE4A934226D923F4D6
:1025E0008063A2F58962934213D06032934212D085
:1025F000483A934211D06032934210D0483A934205
:102600000FD06032934214BF4FF480034FF48033F5
:1026100009E0A14B07E0A04B05E0402303E0402385
:1026200001E04FF480339D4AD36076E09C4A9342A8
:1026300025D923F48063A83A934213D060329342A1
:1026400012D0483A934211D06032934210D0483AA7
:1026500093420FD06032934214BF4FF480034FF483
:10266000803309E08C4B07E08B4B05E0402303E00F
:10267000402301E04FF48033884A93604DE0894A5B
:10268000934225D923F48063483A934213D06032B1
:10269000934212D0483A934211D06032934210D004
:1026A000483A93420FD06032934214BF4FF48003F4
:1026B0004FF4803309E0784B07E0774B05E0402387
:1026C00003E0402301E04FF48033774AD36024E0F5
:1026D00023F48063754A934213D06032934212D040
:1026E000483A934211D06032934210D0483A934214
:1026F0000FD06032934214BF4FF480034FF4803305
:1027000009E0654B07E0644B05E0402303E040230C
:1027100001E04FF48033644A9360002E00F0B180F2
:10272000DBF84C3043F00403CBF84C30DBF80030DE
:10273000584A934228D923F48063A2F589629342D0
:1027400013D06032934212D0483A934211D0603293
:10275000934211D0483A934211D06032934214BF51
:102760004FF080734FF480230BE0514B09E0504B46
:1027700007E04FF4807304E04FF4807301E04FF4FE
:102780008023464AD3607CE0454A934227D923F40C
:102790008063A83A934213D06032934212D0483AF1
:1027A000934211D06032934211D0483A934211D0F3
:1027B0006032934214BF4FF080734FF480230BE0DC
:1027C0003B4B09E03A4B07E04FF4807304E04FF4D1
:1027D000807301E04FF48023304A936051E0314A26
:1027E000934227D923F48063483A934213D060324E
:1027F000934212D0483A934211D06032934211D0A2
:10280000483A934211D06032934214BF4FF0807324
:102810004FF480230BE0264B09E0254B07E04FF4F3
:10282000807304E04FF4807301E04FF480231E4A6C
:10283000D36026E023F480631C4A934213D06032B5
:10284000934212D0483A934211D06032934211D051
:10285000483A934211D06032934214BF4FF08073D4
:102860004FF480230BE0124B09E0114B07E04FF4CB
:10287000807304E04FF4807301E04FF480230A4A30
:10288000936004238BF8353000238BF8343001201B
:1028900000F0F6BD58640240010080000064024070
:1028A000B860024058600240006002401060024080
:1028B00004008000B8F1FF3F22D0B8F1000F05D02E
:1028C000FDF7DCFD039A801A80450FD2DDF804B0D5
:1028D000DBF84C3043F02003CBF84C3003208BF86E
:1028E000350000238BF8343000F0CABD019B1B6813
:1028F0000093194623F48062DFF8E0C2DFF8E0B20B
:10290000A14208D9AF4B5B6819EA030F3FF422AD2F
:10291000DDF804B01EE0514508D9AA4B1B6819EA3E
:10292000030F3FF431ADDDF804B013E0A64B99423C
:1029300008D9583B5B6819EA030F3FF43FADDDF857
:1029400004B007E0A14B1B6819EA030F3FF44FAD39
:10295000DDF804B0029A002A40F0E682009A13687B
:1029600013F4802F00F07881994B994228D921F4F3
:102970008061A3F58963994213D06033994212D0E4
:10298000483B994211D06033994211D0483B99425B
:1029900011D06033994214BF4FF080614FF4801121
:1029A0000BE0102109E0102107E04FF4806104E002
:1029B0004FF4806101E04FF48011824BD9607CE0DC
:1029C000844B994227D921F48061A83B994213D0C6
:1029D0006033994212D0483B994211D060339942FA
:1029E00011D0483B994211D06033994214BF4FF047
:1029F00080634FF480130BE0102309E0102307E0FD
:102A00004FF4806304E04FF4806301E04FF48013DF
:102A10006C4A936051E06C4B994227D921F4806154
:102A2000483B994213D06033994212D0483B9942B7
:102A300011D06033994211D0483B994211D0603394
:102A4000994214BF4FF080634FF480130BE01023C2
:102A500009E0102307E04FF4806304E04FF4806343
:102A600001E04FF48013594AD36026E021F48061DD
:102A7000594B994213D06033994212D0483B994246
:102A800011D06033994211D0483B994211D0603344
:102A9000994214BF4FF080634FF480130BE0102372
:102AA00009E0102307E04FF4806304E04FF48063F3
:102AB00001E04FF48013454A9360DBF80030444A4C
:102AC000934228D923F48063A2F58962934213D0FC
:102AD0006032934212D0483A934211D0603293420E
:102AE00011D0483A934211D06032934214BF4FF054
:102AF00000634FF400130BE0202309E0202307E0DC
:102B00004FF4006304E04FF4006301E04FF400135E
:102B10002C4AD3608DE02F4A934227D923F4806357
:102B2000A83A934213D06032934212D0483A93426B
:102B300011D06032934211D0483A934211D06032A2
:102B4000934214BF4FF000634FF400130BE02023B7
:102B500009E0202307E04FF4006304E04FF4006332
:102B600001E04FF40013174A936062E0164A934263
:102B700038D923F48063483A934213D060329342A9
:102B800012D0483A934211D06032934211D0483A61
:102B9000934211D06032934214BF4FF000634FF460
:102BA00000130BE0202309E0202307E04FF400632B
:102BB00004E04FF4006301E04FF40013034AD360D4
:102BC00037E000BF006402405860024000600240ED
:102BD00058640240B86002401060024070600240D9
:102BE0002860024023F48063B24A934213D06032DB
:102BF000934212D0483A934211D06032934211D09E
:102C0000483A934211D06032934214BF4FF00063B0
:102C10004FF400130BE0202309E0202307E04FF4DA
:102C2000006304E04FF4006301E04FF40013A24A94
:102C30009360DBF800301A6812F4002F03D11123DF
:102C40008BF835306CE11B6813F4002F00F06881BD
:102C500021238BF8353063E1984B994228D921F430
:102C60008061A3F58963994213D06033994212D0F1
:102C7000483B994211D06033994211D0483B994268
:102C800011D06033994214BF4FF080614FF480112E
:102C90000BE0102109E0102107E04FF4806104E00F
:102CA0004FF4806101E04FF48011854BD9607CE0E6
:102CB000844B994227D921F48061A83B994213D0D3
:102CC0006033994212D0483B994211D06033994207
:102CD00011D0483B994211D06033994214BF4FF054
:102CE00080634FF480130BE0102309E0102307E00A
:102CF0004FF4806304E04FF4806301E04FF48013ED
:102D00006F4A936051E0704B994227D921F480615A
:102D1000483B994213D06033994212D0483B9942C4
:102D200011D06033994211D0483B994211D06033A1
:102D3000994214BF4FF080634FF480130BE01023CF
:102D400009E0102307E04FF4806304E04FF4806350
:102D500001E04FF48013584AD36026E021F48061EB
:102D6000544B994213D06033994212D0483B994258
:102D700011D06033994211D0483B994211D0603351
:102D8000994214BF4FF080634FF480130BE010237F
:102D900009E0102307E04FF4806304E04FF4806300
:102DA00001E04FF48013444A9360DBF80030434A5B
:102DB000934228D923F48063A2F58962934213D009
:102DC0006032934212D0483A934211D0603293421B
:102DD00011D0483A934211D06032934214BF4FF061
:102DE00000634FF400130BE0202309E0202307E0E9
:102DF0004FF4006304E04FF4006301E04FF400136C
:102E00002F4AD36089E02F4A934227D923F4806365
:102E1000A83A934213D06032934212D0483A934278
:102E200011D06032934211D0483A934211D06032AF
:102E3000934214BF4FF000634FF400130BE02023C4
:102E400009E0202307E04FF4006304E04FF400633F
:102E500001E04FF400131A4A93605EE01A4A93426D
:102E600034D923F48063483A934213D060329342BA
:102E700012D0483A934211D06032934211D0483A6E
:102E8000934211D06032934214BF4FF000634FF46D
:102E900000130BE0202309E0202307E04FF4006338
:102EA00004E04FF4006301E04FF40013024AD360E2
:102EB00033E000BF106002400060024058640240EE
:102EC00000640240B86002405860024023F480630E
:102ED000B84A934213D06032934212D0483A934298
:102EE00011D06032934211D0483A934211D06032EF
:102EF000934214BF4FF000634FF400130BE0202304
:102F000009E0202307E04FF4006304E04FF400637E
:102F100001E04FF40013A84A936011238BF8353079
:102F200000208BF83400ABE2009A136813F4802F72
:102F300000F0BE80A14B994228D921F48061A3F50D
:102F40008963994213D06033994212D0483B994229
:102F500011D06033994211D0483B994211D060336F
:102F6000994214BF4FF080614FF480110BE01021A3
:102F700009E0102107E04FF4806104E04FF4806124
:102F800001E04FF480118E4BD9607CE08D4B99426B
:102F900027D921F48061A83B994213D0603399422C
:102FA00012D0483B994211D06033994211D0483B2E
:102FB000994211D06033994214BF4FF080634FF4AF
:102FC00080130BE0102309E0102307E04FF4806327
:102FD00004E04FF4806301E04FF48013784A93607B
:102FE00051E0794B994227D921F48061483B9942BD
:102FF00013D06033994212D0483B994211D06033CC
:10300000994211D0483B994211D06033994214BF84
:103010004FF080634FF480130BE0102309E010237E
:1030200007E04FF4806304E04FF4806301E04FF465
:103030008013614AD36026E021F480615D4B9942A0
:1030400013D06033994212D0483B994211D060337B
:10305000994211D0483B994211D06033994214BF34
:103060004FF080634FF480130BE0102309E010232E
:1030700007E04FF4806304E04FF4806301E04FF415
:1030800080134D4A9360DBF800301A6812F4002F69
:1030900004D131238BF835300020F1E11B6813F4A3
:1030A000002F00F0BF8041238BF835300020E7E18E
:1030B000424B994228D921F48061A3F58963994252
:1030C00013D06033994212D0483B994211D06033FB
:1030D000994211D0483B994211D06033994214BFB4
:1030E0004FF080614FF480110BE0102109E01021B6
:1030F00007E04FF4806104E04FF4806101E04FF499
:1031000080112F4BD96088E02E4B994227D921F4AA
:103110008061A83B994213D06033994212D0483B5A
:10312000994211D06033994211D0483B994211D055
:103130006033994214BF4FF080634FF480130BE06B
:10314000102309E0102307E04FF4806304E04FF4FC
:10315000806301E04FF48013194A93605DE01A4BDD
:10316000994233D921F48061483B994213D06033AE
:10317000994212D0483B994211D06033994211D004
:10318000483B994211D06033994214BF4FF080639D
:103190004FF480130BE0102309E0102307E04FF4F5
:1031A000806304E04FF4806301E04FF48013024A2F
:1031B000D36032E010600240006002405864024078
:1031C00000640240B86002405860024021F480610F
:1031D000AD4B994213D06033994212D0483B99428B
:1031E00011D06033994211D0483B994211D06033DD
:1031F000994214BF4FF080634FF480130BE010230B
:1032000009E0102307E04FF4806304E04FF480638B
:1032100001E04FF480139D4A936031238BF83530E1
:1032200000202DE100202BE100F40070984E73681F
:1032300003F0400377684FF48076FFF7F1B800F4AD
:103240000020934E736803F4803377684FF4802630
:10325000FFF7E6B800F400208D4E736803F4803366
:1032600077684FF48026FFF7DBB800F40070884ED3
:10327000736803F0400377684FF48076FFF7D0B8A7
:1032800000F00800824E7768824B3B407768824EA0
:10329000FFF7C6B800F008007D4E77687D4B3B40D5
:1032A00077687D4EFFF7BCB800F00070784E736809
:1032B00003F4800377684FF08076FFF7B1B800F42D
:1032C0000070734E336803F0400337684FF4807624
:1032D000FFF7A8B800F400706D4E336803F04003A8
:1032E00037684FF48076FFF79DB800F00800684E0D
:1032F0003768684B3B403768674EFFF793B800F07C
:103300000070634E336803F4800337684FF08076B3
:10331000FFF788B800F400205D4E336803F4803373
:1033200037684FF48026FFF77DB800F40020584E30
:10333000336803F4803337684FF48026FFF772B8A0
:1033400000F00800524E3768524B3B403768524EEF
:10335000FFF768B800F008004C4E77684D4B3B40D3
:1033600077684D4EFFF760B800F40020474E736851
:1033700003F4803377684FF48026FFF755B800F4E4
:103380000020424E736803F4803377684FF4802640
:10339000FFF74AB800F000703C4E736803F48003F6
:1033A00077684FF08076FFF73FB800F40070374E33
:1033B000736803F0400377684FF48076FFF734B802
:1033C00000F00800314E7768324B3B407768324E50
:1033D000FFF72AB800F400702C4E736803F0400326
:1033E00077684FF48076FFF71FB800F00070274E23
:1033F000336803F4800337684FF08076FFF716B820
:1034000000F00800214E3768224B3B403768224EBF
:10341000FFF70CB800F400701C4E336803F0400353
:1034200037684FF48076FFF701B800F00800174EB8
:103430003768184B3B403768174EFEF7F7BF00F46C
:103440000070124E336803F0400337684FF4807603
:10345000FEF7ECBF00F400200C4E336803F4803319
:1034600037684FF48026FEF7E1BF00F40020074ED6
:10347000336803F4803337684FF48026FEF7D6BFF5
:1034800005B0BDE8F08F00BF106002400060024050
:1034900000640240010080000400800010B5044672
:1034A0000368B54A93422BD9583A516823F4806295
:1034B000B248824213D06030824212D048388242F1
:1034C00011D06030824211D04838824211D0603031
:1034D000824214BF4FF000724FF400220BE008222A
:1034E00009E0082207E04FF4007204E04FF4007294
:1034F00001E04FF400220A420CBF0022012289E0C1
:103500009F4A93422CD902F55272116823F48062CB
:103510009A48824213D06030824212D048388242A8
:1035200011D06030824211D04838824211D06030D0
:10353000824214BF4FF000724FF400220BE00822C9
:1035400009E0082207E04FF4007204E04FF4007233
:1035500001E04FF400220A420CBF0022012259E090
:10356000884A93422BD9583A516823F480628348A1
:10357000824213D06030824212D04838824211D049
:103580006030824211D04838824211D0603082428D
:1035900014BF4FF000724FF400220BE0082209E044
:1035A000082207E04FF4007204E04FF4007201E0DB
:1035B0004FF400220A420CBF002201222AE0724A84
:1035C000116823F480626D48824213D060308242D9
:1035D00012D04838824211D06030824211D048382F
:1035E000824211D06030824214BF4FF000724FF41B
:1035F00000220BE0082209E0082207E04FF40072E5
:1036000004E04FF4007201E04FF400220A420CBFC4
:1036100000220122002A00F0CD801A6812F0040F67
:1036200000F0C8801A6822F004021A602368524A27
:10363000934228D923F48063A2F58962934213D080
:103640006032934212D0483A934211D06032934292
:1036500011D0483A934211D06032934214BF4FF0D8
:1036600000734FF400230BE0082309E0082307E070
:103670004FF4007304E04FF4007301E04FF40023B3
:10368000424AD36088E03E4A934227D923F48063BC
:10369000A83A934213D06032934212D0483A9342F0
:1036A00011D06032934211D0483A934211D0603227
:1036B000934214BF4FF000734FF400230BE0082334
:1036C00009E0082307E04FF4007304E04FF40073AF
:1036D00001E04FF400232D4A93605DE0294A9342B4
:1036E00027D923F48063483A934213D0603293423F
:1036F00012D0483A934211D06032934211D0483AE6
:10370000934211D06032934214BF4FF000734FF4D4
:1037100000230BE0082309E0082307E04FF40073BF
:1037200004E04FF4007301E04FF40023164AD36025
:1037300032E023F48063114A934213D06032934203
:1037400012D0483A934211D06032934211D0483A95
:1037500093421DD06032934214BF4FF000734FF478
:10376000002317E0082315E0082313E04FF400734B
:1037700010E04FF400730DE0586402401060024006
:10378000B86002405860024000600240006402409D
:103790004FF40023A54A9360E36C43F00103E36414
:1037A000042384F83530002384F83430A36C0BB143
:1037B0002046984723689E4A934229D9583A51682F
:1037C00023F480629B48824213D06030824212D040
:1037D0004838824211D06030824210D0483882424C
:1037E0000FD06030824214BF4FF480024FF4803219
:1037F00009E0914A07E0904A05E0402203E04022B8
:1038000001E04FF480320A420CBF0022012283E023
:103810008A4A93422AD902F55272116823F48062CF
:103820008448824213D06030824212D048388242AB
:1038300011D06030824210D0483882420FD06030C0
:10384000824214BF4FF480024FF4803209E07A4A7A
:1038500007E0794A05E0402203E0402201E04FF40E
:1038600080320A420CBF0022012255E0744A934282
:1038700029D9583A516823F480626E48824213D0A5
:103880006030824212D04838824211D06030824289
:1038900010D0483882420FD06030824214BF4FF4BB
:1038A00080024FF4803209E0634A07E0624A05E093
:1038B000402203E0402201E04FF480320A420CBF74
:1038C0000022012228E0594A116823F480625948F5
:1038D000824213D06030824212D04838824211D0E6
:1038E0006030824210D0483882420FD0603082422D
:1038F00014BF4FF480024FF4803209E04E4A07E0D3
:103900004D4A05E0402203E0402201E04FF48032BE
:103910000A420CBF00220122002A00F0C8805A6926
:1039200012F0800F00F0C3805A6922F080025A61C1
:1039300023683F4A934226D923F48063A2F5896223
:10394000934213D06032934212D0483A934211D03E
:103950006032934210D0483A93420FD06032934283
:1039600014BF4FF480034FF4803309E0324B07E07B
:10397000314B05E0402303E0402301E04FF4803366
:10398000304AD36085E02D4A934225D923F48063E1
:10399000A83A934213D06032934212D0483A9342ED
:1039A00011D06032934210D0483A93420FD0603227
:1039B000934214BF4FF480034FF4803309E01E4B51
:1039C00007E01D4B05E0402303E0402301E04FF4F6
:1039D00080331C4A93605CE0194A934234D923F443
:1039E0008063483A934213D06032934212D0483AEF
:1039F000934211D06032934210D0483A93420FD094
:103A00006032934214BF4FF480034FF4803309E0D7
:103A1000094B07E0084B05E0402303E0402301E0A9
:103A20004FF48033014AD36033E000BF00600240AE
:103A3000586402401060024001008000B8600240FB
:103A4000586002400064024023F48063A74A934216
:103A500013D06032934212D0483A934211D0603270
:103A6000934210D0483A93420FD06032934214BF31
:103A70004FF480034FF4803309E09D4B07E09C4BEB
:103A800005E0402303E0402301E04FF48033994AEE
:103A90009360E36C43F00203E364042384F835305D
:103AA000002384F83430A36C0BB120469847236878
:103AB000914A93422BD9583A516823F480628B483B
:103AC000824213D06030824212D04838824211D0F4
:103AD0006030824211D04838824211D06030824238
:103AE00014BF4FF080724FF480220BE0834A09E04C
:103AF000824A07E04FF4807204E04FF4807201E0E4
:103B00004FF480220A420CBF0022012289E07C4A45
:103B100093422CD902F55272116823F480627348E3
:103B2000824213D06030824212D04838824211D093
:103B30006030824211D04838824211D060308242D7
:103B400014BF4FF080724FF480220BE06B4A09E003
:103B50006A4A07E04FF4807204E04FF4807201E09B
:103B60004FF480220A420CBF0022012259E0654A2C
:103B700093422BD9583A516823F480625B488242C1
:103B800013D06030824212D04838824211D0603067
:103B9000824211D04838824211D06030824214BF34
:103BA0004FF080724FF480220BE0544A09E0534AF0
:103BB00007E04FF4807204E04FF4807201E04FF4AC
:103BC00080220A420CBF002201222AE0494A1168E1
:103BD00023F480624548824213D06030824212D082
:103BE0004838824211D06030824211D04838824237
:103BF00011D06030824214BF4FF080724FF48022A7
:103C00000BE03E4A09E03D4A07E04FF4807204E0D1
:103C10004FF4807201E04FF480220A420CBF002270
:103C20000122002A00F0D2801A6812F0020F00F080
:103C3000CD801A6822F002021A6023682E4A93424D
:103C400028D923F48063A2F58962934213D06032AD
:103C5000934212D0483A934211D06032934211D02D
:103C6000483A934211D06032934214BF4FF08073B0
:103C70004FF480230BE0214B09E0204B07E04FF489
:103C8000807304E04FF4807301E04FF480231E4AF8
:103C9000D3608DE01A4A934238D923F48063A83A5E
:103CA000934213D06032934212D0483A934211D0DB
:103CB0006032934211D0483A934211D0603293421D
:103CC00014BF4FF080734FF480230BE00B4B09E0DF
:103CD0000A4B07E04FF4807304E04FF4807301E077
:103CE0004FF48023084A936062E000BF10600240F6
:103CF000010080000060024058640240040080001F
:103D0000B86002405860024000640240A94A9342F1
:103D100027D923F48063483A934213D06032934208
:103D200012D0483A934211D06032934211D0483AAF
:103D3000934211D06032934214BF4FF080734FF41E
:103D400080230BE09C4B09E09B4B07E04FF4807312
:103D500004E04FF4807301E04FF48023974AD3606E
:103D600026E023F48063964A934213D06032934254
:103D700012D0483A934211D06032934211D0483A5F
:103D8000934211D06032934214BF4FF080734FF4CE
:103D900080230BE0884B09E0874B07E04FF48073EA
:103DA00004E04FF4807301E04FF48023834A936072
:103DB000E36C43F00403E364042384F83530002308
:103DC00084F83430A36C0BB12046984723687D4AB1
:103DD00093422BD9583A516823F480627848824242
:103DE00013D06030824212D04838824211D0603005
:103DF000824211D04838824211D06030824214BFD2
:103E00004FF080624FF480120BE0102209E0102284
:103E100007E04FF4806204E04FF4806201E04FF469
:103E200080120A420CBF0022012289E0664A9342B6
:103E30002CD902F55272116823F4806260488242E4
:103E400013D06030824212D04838824211D06030A4
:103E5000824211D04838824211D06030824214BF71
:103E60004FF080624FF480120BE0102209E0102224
:103E700007E04FF4806204E04FF4806201E04FF409
:103E800080120A420CBF0022012259E0494A9342A3
:103E90002BD9583A516823F480624948824213D0A2
:103EA0006030824212D04838824211D06030824263
:103EB00011D04838824211D06030824214BF4FF096
:103EC00080624FF480120BE0102209E0102207E01C
:103ED0004FF4806204E04FF4806201E04FF48012FE
:103EE0000A420CBF002201222AE0344A116823F45E
:103EF00080623348824213D06030824212D0483808
:103F0000824211D06030824211D04838824211D0B2
:103F10006030824214BF4FF080624FF480120BE099
:103F2000102209E0102207E04FF4806204E04FF411
:103F3000806201E04FF480120A420CBF002201228D
:103F4000002A00F08D811A6812F0080F00F08881B5
:103F50001A6812F4802F00F0CA801A4A934237D9A7
:103F600023F48063A2F58962934213D060329342B6
:103F700012D0483A934211D06032934211D0483A5D
:103F8000934211D06032934214BF4FF080634FF4DC
:103F900080130BE0102309E0102307E04FF4806347
:103FA00004E04FF4806301E04FF48013074AD360CC
:103FB0008BE000BF586002400400800000600240B7
:103FC0001060024058640240B86002400064024041
:103FD000B64A934227D923F48063A83A934213D078
:103FE0006032934212D0483A934211D060329342E9
:103FF00011D0483A934211D06032934214BF4FF02F
:1040000080634FF480130BE0102309E0102307E0D6
:104010004FF4806304E04FF4806301E04FF48013B9
:10402000A34A936051E0A34A934227D923F48063C3
:10403000483A934213D06032934212D0483A9342A6
:1040400011D06032934211D0483A934211D060327D
:10405000934214BF4FF080634FF480130BE01023A2
:1040600009E0102307E04FF4806304E04FF480631D
:1040700001E04FF48013904AD36026E023F480637C
:104080008E4A934213D06032934212D0483A934200
:1040900011D06032934211D0483A934211D060322D
:1040A000934214BF4FF080634FF480130BE0102352
:1040B00009E0102307E04FF4806304E04FF48063CD
:1040C00001E04FF480137C4A936023681A6812F46D
:1040D000002F03D1312384F83530BDE01B6813F481
:1040E000002F00F0B980412384F83530B4E01A681D
:1040F00012F4807F03D11A6822F008021A60236844
:104100006F4A934228D923F48063A2F589629342CF
:1041100013D06032934212D0483A934211D06032A9
:10412000934211D0483A934211D06032934214BF67
:104130004FF080634FF480130BE0102309E010234D
:1041400007E04FF4806304E04FF4806301E04FF434
:104150008013574AD3607CE0544A934227D923F412
:104160008063A83A934213D06032934212D0483A07
:10417000934211D06032934211D0483A934211D009
:104180006032934214BF4FF080634FF480130BE012
:10419000102309E0102307E04FF4806304E04FF49C
:1041A000806301E04FF48013414A936051E0414A3B
:1041B000934227D923F48063483A934213D0603264
:1041C000934212D0483A934211D06032934211D0B8
:1041D000483A934211D06032934214BF4FF080634B
:1041E0004FF480130BE0102309E0102307E04FF495
:1041F000806304E04FF4806301E04FF480132E4AA3
:10420000D36026E023F480632C4A934213D06032BB
:10421000934212D0483A934211D06032934211D067
:10422000483A934211D06032934214BF4FF08063FA
:104230004FF480130BE0102309E0102307E04FF444
:10424000806304E04FF4806301E04FF480131A4A66
:104250009360312384F83530236C0BB120469847A6
:104260002368174A934237D9583A516823F4806239
:104270001248824213D06030824212D048388242C3
:1042800011D0603082421DD0483882421DD060304B
:10429000824214BF4FF000624FF4001217E0202258
:1042A00015E0202213E04FF4006210E0B8600240F5
:1042B000006402405860024000600240106002400A
:1042C000586402404FF4006201E04FF400120A42C9
:1042D0000CBF0022012289E0AB4A93422CD902F59F
:1042E0005272116823F48062A848824213D0603071
:1042F000824212D04838824211D06030824211D0BE
:104300004838824211D06030824214BF4FF00062C0
:104310004FF400120BE0202209E0202207E04FF4C6
:10432000006204E04FF4006201E04FF400120A4220
:104330000CBF0022012259E0954A93422BD9583AEA
:10434000516823F480629148824213D060308242E7
:1043500012D04838824211D06030824211D04838A1
:10436000824211D06030824214BF4FF000624FF49D
:1043700000120BE0202209E0202207E04FF4006247
:1043800004E04FF4006201E04FF400120A420CBF57
:10439000002201222AE07F4A116823F480627B48D0
:1043A000824213D06030824212D04838824211D00B
:1043B0006030824211D04838824211D0603082424F
:1043C00014BF4FF000624FF400120BE0202209E00E
:1043D000202207E04FF4006204E04FF4006201E0A5
:1043E0004FF400120A420CBF00220122002A00F002
:1043F00095811A6812F0100F00F090811A6812F47B
:10440000802F00F0CD80644A934228D923F4806342
:10441000A2F58962934213D06032934212D0483A97
:10442000934211D06032934211D0483A934211D056
:104430006032934214BF4FF000634FF400130BE05F
:10444000202309E0202307E04FF4006304E04FF449
:10445000006301E04FF40013504AD3607CE04A4A05
:10446000934227D923F48063A83A934213D0603251
:10447000934212D0483A934211D06032934211D005
:10448000483A934211D06032934214BF4FF0006318
:104490004FF400130BE0202309E0202307E04FF442
:1044A000006304E04FF4006301E04FF400133B4A63
:1044B000936051E0364A934227D923F48063483A07
:1044C000934213D06032934212D0483A934211D0B3
:1044D0006032934211D0483A934211D060329342F5
:1044E00014BF4FF000634FF400130BE0202309E0EA
:1044F000202307E04FF4006304E04FF4006301E081
:104500004FF40013234AD36026E023F480631F4A4C
:10451000934213D06032934212D0483A934211D062
:104520006032934211D0483A934211D060329342A4
:1045300014BF4FF000634FF400130BE0202309E099
:10454000202307E04FF4006304E04FF4006301E030
:104550004FF400130F4A936023681A6812F4002F77
:1045600006D1636C002B00F0D9802046984710BD1F
:104570001B6813F4002F00F0D180E36B002B00F0D8
:10458000CD802046984710BDB860024010600240C0
:1045900058600240006002405864024000640240DB
:1045A0001A6812F4807F03D11A6822F010021A6090
:1045B00023685B4A934228D923F48063A2F5896279
:1045C000934213D06032934212D0483A934211D0B2
:1045D0006032934211D0483A934211D060329342F4
:1045E00014BF4FF000634FF400130BE0202309E0E9
:1045F000202307E04FF4006304E04FF4006301E080
:104600004FF40013474AD3607CE0474A934227D9CE
:1046100023F48063A83A934213D06032934212D0BD
:10462000483A934211D06032934211D0483A9342B3
:1046300011D06032934214BF4FF000634FF4001367
:104640000BE0202309E0202307E04FF4006304E09F
:104650004FF4006301E04FF40013324A936051E0DD
:10466000324A934227D923F48063483A934213D0C5
:104670006032934212D0483A934211D06032934252
:1046800011D0483A934211D06032934214BF4FF098
:1046900000634FF400130BE0202309E0202307E020
:1046A0004FF4006304E04FF4006301E04FF40013A3
:1046B0001F4AD36026E023F480631E4A934213D03E
:1046C0006032934212D0483A934211D06032934202
:1046D00011D0483A934211D06032934214BF4FF048
:1046E00000634FF400130BE0202309E0202307E0D0
:1046F0004FF4006304E04FF4006301E04FF4001353
:104700000B4A9360E36CE364112384F83530002393
:1047100084F83430E36B0BB12046984710BD00BFDE
:104720005864024000640240B86002405860024091
:10473000006002401060024090F83500704700BFF2
:10474000C06C704730B490F83440012C33D0012451
:1047500080F834400468256815F4002F03D1122531
:1047600080F8355006E0256815F4002F1CBF22257F
:1047700080F83550256825F0010525600468256816
:1047800045F480252560046823610368029C5C6011
:104790008368402B04D103689A600368D96003E002
:1047A000036899600368DA6003681A6842F00102DE
:1047B0001A60002000E0022030BC704730B490F84E
:1047C0003440012C4CD0012480F834400468256822
:1047D00015F4002F03D1122580F8355006E0256826
:1047E00015F4002F1CBF222580F83550256825F0D0
:1047F000010525600468256845F480252560046866
:1048000023610368029C5C608368402B04D10368C9
:104810009A600368D96003E0036899600368DA600E
:1048200003681A6842F010021A6003681A6842F0BE
:1048300008021A6003681A6842F004021A600368EA
:104840005A6942F080025A6103681A6842F0020213
:104850001A6003681A6842F001021A60002000E042
:10486000022030BC704700BF12B90368D96001E074
:104870000368196100207047074B1A6922F44072DF
:104880001A611A6942F400721A611A6942F001024F
:104890001A610160704700BF003C0240074B1A6973
:1048A00022F440721A611A6942F480721A611A691C
:1048B00042F001021A610180704700BF003C0240D3
:1048C0001E4BDB6813F0100F04D01D4BDA6942F069
:1048D0001002DA61194BDB6813F0200F04D0184B7B
:1048E000DA6942F00802DA61144BDB6813F0400F1A
:1048F00004D0134BDA6942F00402DA610F4BDB6833
:1049000013F0800F04D00E4BDA6942F00202DA6134
:104910000A4BDB6813F4807F04D0094BDA6942F05C
:104920000102DA61054BDB6813F0020F04D0044B7F
:10493000DA6942F02002DA61704700BF003C0240B1
:10494000600E002070B5244C247E012C41D0224DF5
:1049500001242C76214C266946F080762661266952
:1049600046F000762661F326E66003242C70696128
:1049700070B9D2B2194B186920F4407018611869E7
:104980001861186940F0010018610A70002070BDBC
:10499000012805D1084691B2FFF780FF002070BDC5
:1049A000022805D108461146FFF766FF002070BDBA
:1049B0000A4C206920F440702061206940F4407066
:1049C0002061206940F001002061C1E9002300203E
:1049D00070BD022070BD00BF600E0020003C024090
:1049E000704700BF704700BF10B5404B1A6922F0F6
:1049F00001021A611A6922F002021A611A6922F090
:104A0000F8021A611A6922F004021A61DB6813F0D5
:104A1000010F34D0364B1B78DBB2012B1FD1344B46
:104A20005A68013A5A605B686BB1314CE068FFF735
:104A3000D7FFF3222D4BDA60E0680130E060217A85
:104A400000F002FA1BE02A4B4FF0FF30D860002242
:104A50001A70FFF7C5FF0122244BDA600FE0244BE8
:104A60001B78DBB2022B224B0CBF18695869FFF789
:104A7000B7FF00221E4B1A7001221C4BDA601B4B41
:104A8000DB6813F4F97F1ED0194B1B78DBB2012BC6
:104A900005D1174BDC684FF0FF32DA6007E0144BAA
:104AA0001B78DBB2022B124B0CBF1C695C69FFF751
:104AB00007FF2046FFF796FF4FF4F9720B4BDA60C1
:104AC00000220B4B1A700A4B1B7813F0FF0F0BD10F
:104AD000064B1A6922F080721A611A6922F000727C
:104AE0001A610022024B1A7610BD00BF003C024042
:104AF000600E0020064B1B69002B07DA044B054AA9
:104B00005A6002F188325A600020704701207047D5
:104B1000003C024023016745034B1A6942F0004202
:104B20001A610020704700BF003C0240074B5B69E0
:104B300013F0010F07D0054B054A9A6002F1443289
:104B40009A60002070470120704700BF003C02407F
:104B50003B2A1908034B5A6942F001025A610020AE
:104B6000704700BF003C0240014BD869704700BF4E
:104B7000600E002070B504460022114BDA61FBF78D
:104B80007DFC06460F4D08E0B4F1FF3F05D08CB127
:104B9000FBF774FC801B84420ED3EB6813F4803F58
:104BA000F2D1084BDB6813F4F97F07D0FFF788FEDA
:104BB000012070BD032070BD032070BD002070BDBA
:104BC000600E0020003C0240F8B506460F46144631
:104BD0001D46254B1B7E012B44D00122224B1A7609
:104BE0004CF25030FFF7C6FF0346002835D16EB9AE
:104BF000E4B21E4B1A6922F440721A611A691A61F2
:104C00001A6942F001021A613C701CE0012E04D1C5
:104C10003846A1B2FFF742FE15E0022E04D1384615
:104C20002146FFF729FE0EE0104B1A6922F440726C
:104C30001A611A6942F440721A611A6942F001025B
:104C40001A61C7E900454CF25030FFF793FF034665
:104C5000064A116921F0010111610021024A117611
:104C60001846F8BD0220F8BD600E0020003C02404E
:104C700008B5054B1A7842F002021A704CF2503017
:104C8000FFF778FF08BD00BF143C0240074B1A69CC
:104C900022F440721A611A691A611A6942F0040218
:104CA0001A611A6942F480321A617047003C02406E
:104CB00038B504462F4B1B7E012B59D001222D4BBA
:104CC0001A76036813F0010F1DD0436893420DD18B
:104CD00085684CF25030FFF74DFF0346A0B9264AD5
:104CE000118889B221EA050515800DE085684CF22E
:104CF0005030FFF73FFF034630B91F4A11880D437C
:104D0000ADB2158000E00123226812F0020F09D035
:104D100025694CF25030FFF72DFF034610B9EDB274
:104D2000164A1570226812F0040F0ED0257E4CF240
:104D30005030FFF71FFF034638B9114A117805F0CC
:104D4000E00501F01F010D431570226812F0080FF5
:104D500009D0227D0A4B197801F0F30119701978F6
:104D60000A431A7000230021024A1176184638BD02
:104D7000022038BD600E0020163C0240153C024067
:104D8000143C02400F2303600A4B1B889BB28360D4
:104D9000094B1B78DBB2AA3B18BF01230361074B09
:104DA0005B6923F01F030376054B1B7803F00C03AC
:104DB00043617047163C0240153C0240003C0240F3
:104DC000143C024010B5036813F0010F1DD0436876
:104DD000012B0CD104894CF25030FFF7CBFE034677
:104DE000A0B90B4A118889B20C4314800EE00489E3
:104DF0004CF25030FFF7BEFE034638B9044A118822
:104E000089B221EA0404148000E00123184610BD91
:104E1000163C0240014B1B8803817047163C024040
:104E2000034B1A7842F080021A700020704700BFCE
:104E3000173C0240034B1A7802F07F021A700020E0
:104E4000704700BF173C024010B441B1012908D09F
:104E5000022914BF4FF440744FF4007403E000249F
:104E600001E04FF480740F4B196921F4407119610E
:104E70001A6922431A611A6922F0F8021A611A6942
:104E8000F82191FAA1F1B1FA81F142F00202C9B21E
:104E90008840104318611A6942F480321A615DF843
:104EA000044B7047003C02402DE9F041064688461D
:104EB000274B1B7E012B47D00122254B1A764CF243
:104EC0005030FFF757FE0146002837D14FF0FF332F
:104ED000C8F800303368012B0ED1307C7168FFF7C1
:104EE000D5FE4CF25030FFF745FE0146194B1A69CA
:104EF00022F004021A6121E0B468F36823449C4262
:104F00001CD24CF25037134D2046317CFFF79CFFEA
:104F10003846FFF72FFE2B6923F002032B612B6924
:104F200023F0F8032B61014610B1C8F8004005E0FA
:104F30000134B268F3681344A342E5D80022044B5D
:104F40001A760846BDE8F0810220BDE8F08100BF76
:104F5000600E0020003C024008B50346174A127E4E
:104F6000012A29D00121154A1176154A116941F00B
:104F700080711161116941F000711161F321D160FB
:104F80000268012A0AD10D4A02211170416811619B
:104F9000007C5968FFF77AFE002008BD074A01210E
:104FA0001170C16851608168D160017C11728068A4
:104FB000FFF74AFF002008BD022008BD600E002058
:104FC000003C02402DE9F00F00234FF0010C4FF0A0
:104FD0000309DFF888A15F4D80461C460CFA03F0F8
:104FE0000A680240824240F0AE80486820F010001B
:104FF000022811D1D80808EB8000066A03F00707E1
:10500000BF004FF00F0B0BFA07FB26EA0B0B0E69E4
:10501000BE404BEA06060662D8F80070580009FA4E
:1050200000F6F64306EA070B4F6807F003078740D0
:105030004BEA0707C8F800704F6827F01007013FD8
:10504000012F16D8D8F8087006EA070BCF688740FA
:105050004BEA0707C8F80870D8F8047027EA020B73
:105060004F68C7F3001707FA04F44BEA0404C8F8C2
:105070000440D8F80C4026408C6804FA00F0304315
:10508000C8F80C00486810F0805F5CD0DAF8440083
:1050900040F48040CAF8440023F0030000F180404F
:1050A00000F59C30876803F00304A4000F26A64097
:1050B00027EA0606284FB84512D0DFF8A4B0D84535
:1050C00010D007F50067B8450ED00BF5006BD8453A
:1050D0000CD00BF5806BD84514BF0527042706E0DC
:1050E000002704E0674602E0022700E04F4607FA87
:1050F00004F4344384602E68D0434C6814F4803F39
:105100000CBF00EA060442EA06042C606E684C6894
:1051100014F4003F0CBF00EA060442EA06046C6087
:10512000AE684C6814F4801F0CBF00EA060442EA23
:105130000604AC60EE684C6814F4001F0CBF00EA73
:1051400006023243EA600133102B7FF446AFBDE81C
:10515000F00F7047003C0140000002400038024060
:10516000000402402DE9F007002301264FF0030858
:105170004FF00F0C244C06FA03F202EA01059542A7
:105180003BD107685A0008FA02F2D2431740076081
:10519000DF0800EB8707D7F820A003F007094FEAE4
:1051A00089090CFA09F92AEA0909C7F820908768E1
:1051B000174087604768ED432F404760C7683A4013
:1051C000C26023F0030202F1804202F59C3297682C
:1051D00003F003094FEA89090CFA09F927EA0907DC
:1051E000976022682A40226062682A406260A26852
:1051F0002A40A260E2681540E5600133102BBAD165
:10520000BDE8F007704700BF003C01400369194248
:105210000CBF0020012070470AB18161704709046A
:1052200081617047436959404161704782B04FF4D2
:1052300080330193019B0B430193019BC361C161C7
:10524000019BC361C3690193C06980F48030C0F3DE
:10525000004002B0704700BF704700BF08B5044B64
:105260005B69184203D0024B5861FFF7F5FF08BD98
:10527000003C0140F0B585B004469DF828709DF8CB
:105280002C60BDF8305090F88802012829D0012008
:1052900084F888024FEA810C0CEB010E04EBCE0E71
:1052A0000EF130008EF83030AEF838508EF83110F4
:1052B0008EF8376002F07F0E80F802E04FEAD21ECF
:1052C00080F803E08C4404EBCC0C8CF8347020683C
:1052D00000970196029510F011FC002384F88832A3
:1052E00000E0022005B0F0BD10B5044690F8883209
:1052F000012B09D0012380F88832006810F08CFC63
:10530000002084F8880210BD022010BD704700BF45
:10531000F0B589B0064678B3032380F88932FFF7E9
:10532000F5FF30680FF0C4FD344654F810EB6D46BD
:105330000FCC0FC594E80F0085E80F00371D97E8E4
:105340000E0070460FF072FD306801210FF0B6FDBF
:10535000344654F810EB6D460FCC0FC594E80F009F
:1053600085E80F0097E80E00704610F041FB01231E
:1053700086F88932002000E0012009B0F0BD00BFAE
:10538000704700BF10B5044658B1032380F8893236
:10539000FFF7F6FF20680FF08BFD002084F88902EC
:1053A00010BD012010BD00BFF8B504469DF818508F
:1053B000BDF820609DF8247001EB810004EBC00073
:1053C00080F8332080F8373045B901EB810004EBD9
:1053D000C0004FF0030E80F83AE007E001EB8100D7
:1053E00004EBC0004FF0020E80F83AE0032B00F20D
:1053F000A980DFE803F002A03672012D40F0A28000
:10540000002A40F09F803EB901EB810304EBC30307
:10541000012283F849200EE001EB810304EBC30372
:1054200093F849303BB901EB810304EBC30300223D
:1054300083F83A2006E001EB810304EBC303022268
:1054400083F83A2001EB810304EBC30393F8543053
:10545000022B77D001EB810304EBC30383F8357093
:1054600070E01ABB01EB810304EBC30393F84930EE
:1054700033B901EB810304EBC30383F83A2006E060
:1054800001EB810304EBC303022283F83A2001EB12
:10549000810304EBC30393F85430022B52D001EB89
:1054A000810304EBC30383F835704BE001EB810308
:1054B00004EBC30393F848303BB901EB810304EBE1
:1054C000C303002283F83A203CE001EB810304EBA4
:1054D000C303022283F83A2034E0AAB901EB810326
:1054E00004EBC30393F8493033B901EB810304EBB8
:1054F000C30383F83A2025E001EB810304EBC303E7
:10550000022283F83A201DE001EB810304EBC30380
:1055100093F848303BB901EB810304EBC30300224D
:1055200083F83A200EE001EB810304EBC30302226F
:1055300083F83A2006E001EB810304EBC303002269
:1055400083F83A208800431804EBC303079ADA6310
:105550001E64002283F854205A6483F8311083F8C3
:105560005520206803F13001227C10F08BFCF8BD3F
:10557000704700BF704700BF704700BF704700BF53
:105580002DE9F04F85B004460668304610F092F9D8
:10559000012840F0C883206810F058F9002800F076
:1055A000C283206810F052F910F4001F03D0236862
:1055B0004FF400125A61206810F048F910F4801F6F
:1055C00003D023684FF480125A61206810F03EF92E
:1055D00010F0806F03D023684FF080625A6120681A
:1055E00010F034F910F0020F02D0236802225A6141
:1055F000206810F02BF910F0005F10D0D6F840347E
:1056000023F02E03C6F840342046FFF7B5FF20688C
:10561000012110F091F923684FF000525A6120687F
:1056200010F014F910F0807F60D02568D5F8403470
:105630000293D5F840340393039B23F02E03039386
:10564000029B13F0020F0ED0029B13F0010F06D045
:10565000AB6923F00053AB612046FFF78BFF039B40
:1056600043F002030393029B13F0080F33D0039B14
:1056700043F008030393029B13F0040F20D0A369A7
:10568000022B0BD1029B03F4C023B3F5802F2068BB
:105690000CBF0221012110F04FF906E0E368032B53
:1056A00003D14EF66022C5F804242046FFF762FFBE
:1056B000E36883B923689A6942F000529A610AE06C
:1056C000D5F8403423F02E03C5F8403423689A6996
:1056D00042F000529A61029B13F0200F03D0039B0B
:1056E00043F020030393039BC5F84034206810F077
:1056F000ADF810F0080F05D02046FFF739FF2368FA
:1057000008225A61206810F0A1F810F0007F00F024
:10571000C182206810F070FA8346A368002B00F065
:10572000B58206F5A06600254FF0010909FA05F3D8
:1057300013EA0B0F00F0A482336813F4004F00F05B
:105740004D815FFA85F8236803F5A06301934FEA62
:10575000481A1F465744BB6813F0040F06D00423B1
:10576000BB60FB6843F00203FB6036E0BB6813F0EC
:10577000200F02D02023BB602FE0BB6813F0080F7E
:1057800013D0FB6843F00203FB6008EB880304EBD3
:10579000C303052283F855201023BB600823BB6098
:1057A0002068414610F038FA17E0BB6813F4806FA8
:1057B00013D0FB6843F00203FB602068414610F001
:1057C0002BFA1023BB6008EB880304EBC303082209
:1057D00083F855204FF48063BB60BB6813F4007FEF
:1057E0000BD0FB6843F00203FB602068414610F0D9
:1057F00013FA4FF40073BB6042E2BB6813F0010F71
:1058000048D023695BB138694FEA880303EB08028B
:1058100004EBC202C0F31203116CCB1A536408EB01
:10582000880304EBC30383F8559000221A65C7F878
:10583000089093F8373013F0FD0F0AD1FB6843F05E
:105840000203FB602068414610F0E6F91023BB60BC
:1058500013E0032B11D1019850F80A3043F00053A4
:1058600040F80A3008EB880304EBC30383F8549034
:10587000204641464A46FFF781FE4FEA880303EB84
:10588000080204EBC20292F8483083F0010382F868
:105890004830F5E1BB6813F0020F53D0FB6823F0EA
:1058A0000203FB6008EB880304EBC30393F8553055
:1058B000012B06D108EB880304EBC30383F8549053
:1058C00033E0052B07D108EB880304EBC303052263
:1058D00083F8542029E0062B01D0082B25D108EBB2
:1058E000880204EBC202136D591C1165032B06D903
:1058F000134600221A65042283F8542007E008EBBF
:10590000880304EBC3034FF0020283F85420DDF850
:1059100004E05EF80A3023F080434EF80A305EF867
:105920000A3043F000434EF80A300220B86008EB1A
:10593000880304EBC3032046414693F85420FFF745
:105940001DFE9DE1BB6813F0800F17D0FB6843F08C
:105950000203FB604FEA880303EB080204EBC20278
:10596000116D013111651346062283F85520206818
:10597000414610F051F98023BB6081E1BB6813F010
:10598000100F00F07D8108EB880304EBC30393F84C
:105990003730032B08D1FB6843F00203FB6020681B
:1059A000414610F039F90FE013F0FD0F0CD1019AC8
:1059B00052F80A3023F0804342F80A3052F80A3095
:1059C00043F0004342F80A3008EB880804EBC803B0
:1059D000032283F855201023BB6051E15FFA85F85C
:1059E000226802F5A0624FEA4813D718B96811F08F
:1059F000040F06D00423BB60FB6843F00203FB6086
:105A00003EE1E9B2B86810F0200F23D02023BB603C
:105A100008EB880304EBC30393F83530012B40F007
:105A20002F814FEA880A0AEB080304EBC303042220
:105A300083F85520FB6843F00203FB60206810F0F8
:105A4000EBF80AEB080304EBC3034FF0020E83F8F4
:105A500054E015E1B86810F0400F15D04FEA880304
:105A600003EB080204EBC202042082F8550013463F
:105A700000221A65FB6843F00203FB60206810F007
:105A8000CBF84023BB60FBE0B86810F4007F0AD07D
:105A9000FB6843F00203FB60206810F0BDF84FF490
:105AA0000073BB60ECE0B86810F0010F17D04FEA4C
:105AB000880A0AEB080304EBC30300221A65FB689B
:105AC00043F00203FB60206810F0A6F8C7F80890C6
:105AD0000AEB080304EBC30383F85590D0E0B868E1
